:020000040800F2
:10000000B0060020C10100081F1200083D110008C1
:100010001D120008B7030008D714000800000000F4
:10002000000000000000000000000000A512000811
:10003000B90300080000000021120008A712000800
:10004000DB010008DB010008DB010008DB01000820
:10005000DB010008DB010008DB010008DB01000810
:10006000DB010008DB010008DB010008DB01000800
:10007000DB010008DB010008DB010008DB010008F0
:10008000DB010008DB010008DB010008DB010008E0
:10009000DB010008DB010008DB010008DB010008D0
:1000A000DB010008DB010008DB010008DB010008C0
:1000B000DB010008DB010008DB010008DB010008B0
:1000C000DB010008DB010008DB010008DB010008A0
:1000D000DB010008DB010008DB010008DB01000890
:1000E000DB010008DB010008DB010008DB01000880
:1000F000DB01000800000000DB010008DB01000854
:10010000DB010008DB010008DB010008DB0100085F
:10011000DB010008DB010008DB0100080000000033
:10012000DB01000800F002F800F03AF80AA090E8BD
:10013000000C82448344AAF10107DA4501D100F0A2
:100140002FF8AFF2090EBAE80F0013F0010F18BF35
:10015000FB1A43F00103184708140000281400009C
:10016000103A24BF78C878C1FAD8520724BF30C8E3
:1001700030C144BF04680C607047000000230024B5
:1001800000250026103A28BF78C1FBD8520728BFA7
:1001900030C148BF0B6070471FB51FBD10B510BD03
:1001A00000F0CFF81146FFF7F7FF01F0A5F900F0D6
:1001B000EDF803B4FFF7F2FF03BC00F0F5F8000020
:1001C0000948804709480047FEE7FEE7FEE7FEE7EB
:1001D000FEE7FEE7FEE7FEE7FEE7FEE70448054927
:1001E000054A064B7047000011130008250100085E
:1001F000B0000020B0060020B0020020B0020020B5
:1002000053EA020C00F069802DE9F04B4FF0000634
:10021000002B1FBFB3FA83F503FA05F424FA05F6A1
:100220005E4012BF1643B2FA82F502FA05F4C5F138
:1002300020051EBF22FA05FC44EA0C04203556EACC
:10024000044C4FEA144418BF641C4FF000084FF0F0
:100250000009904271EB030C39D3002919BFB1FAA0
:1002600081F701FA07F6B0FA80F700FA07F6C7F14E
:1002700020071EBF20FA07FC46EA0C062037B6FB13
:10028000F4FCA7EB0507103F07F01F0BCBF120068E
:100290000CFA0BFB2CFA06F644BFB3460026202FBF
:1002A000A4BF5E464FF0000B5BEA060C08BF4FF0A0
:1002B000010B19EB0B09ABFB027C48EB0608C01BDA
:1002C00006FB02CC0BFB03CC71EB0C01C1E70B4628
:1002D000024641464846BDE8F08B13B54FF000009A
:1002E0004FF00001AFF30080BDE81C4070474FF0B5
:1002F000000200B5134694469646203922BFA0E876
:100300000C50A0E80C50B1F12001BFF4F7AF090781
:1003100028BFA0E80C5048BF0CC05DF804EB890072
:1003200028BF40F8042B08BF704748BF20F8022BB5
:1003300011F0804F18BF00F8012B704770477047CD
:100340007047754600F02CF8AE46050069465346E6
:1003500020F00700854618B020B5FFF73FFFBDE845
:1003600020404FF000064FF000074FF000084FF01C
:10037000000B21F00701AC46ACE8C009ACE8C009AD
:10038000ACE8C009ACE8C0098D46704710B504461A
:10039000AFF300802046BDE81040FFF70ABF000021
:1003A000004870475000002001491820ABBEFEE70E
:1003B000260002007047FEE7704700002DE9F04F6D
:1003C000DFF82892002301260324A9F1040B85B04D
:1003D0000F2709F1040AABF1040EFEE006FA03F55B
:1003E0001CEA05027ED091F804C00CF0030CBCF1AD
:1003F000010F02D0BCF1020F26D1D0F808C0CDF811
:1004000000C04FEA430C04FA0CF8CDF810C0DDF838
:1004100000C02CEA080CCDF800C0D1F80C80DDF843
:1004200010C008FA0CF8DDF800C048EA0C08C0F863
:100430000880D0F804C02CEA050C0D79C5F300152E
:100440009D4045EA0C0545600D79ED43AD070ED0A2
:10045000C5684FEA430804FA08FC25EA0C05D1F800
:1004600008C00CFA08FC4CEA050CC0F80CC00D7969
:1004700005F00305022D15D1DD0800EB8505029579
:100480002D6A4FEA437C4FEADC6807FA08FC25EA4C
:100490000C05D1F810C00CFA08FC4CEA050C029DC2
:1004A000C5F820C005684FEA430804FA08FC25EAAD
:1004B0000C0591F804C00CF0030C0CFA08FC4CEA93
:1004C000050CC0F800C04D6815F4403F0AD0484DF7
:1004D000D5F800C04CF0010CC5F800C02D6805F03F
:1004E000010500E078E00095424D23F0030C6544DF
:1004F0000295AD684FEA837C4FEA1C7807FA08FC46
:1005000025EA0C05DFF8F0C0604502D14FF0000C81
:100510002BE0DFF8E8C0604502D14FF0010C24E089
:10052000DFF8DCC0604502D14FF0020C1DE0DFF8BF
:10053000D4C0604502D14FF0030C16E0DFF8C8C00C
:10054000604502D14FF0040C0FE0DFF8C0C06045F9
:1005500002D14FF0050C08E0DFF8B4C0604502D1CD
:100560004FF0060C01E04FF0070C0CFA08FC4CEAC7
:10057000050C029DC5F808C0D9F80050CC46D1F84A
:10058000048095435FEAC82800D51543CCF8005095
:10059000DAF80050D446D1F8048095435FEA882801
:1005A00000D51543CCF80050DBF80050DC46D1F8FC
:1005B000048095435FEA883800D51543CCF8005095
:1005C000DEF80050F446D1F8048095435FEAC8385D
:1005D00000D51543CCF800505B1C0A689446DA40FD
:1005E0007FF4FCAE05B0BDE8F08F000008040140C8
:1005F0002038024000000140000002400004024098
:1006000000080240000C02400010024000140240AA
:100610000018024001488068704700000000002078
:1006200002488168426811448160704700000020E0
:1006300010B50024032000F06BF80F2000F008F83C
:1006400008B1012401E000F025F8204610BD0000AB
:1006500070B50E4E05460024706898B14FF47A715B
:10066000B1FBF0F00A490968B1FBF0F000F07CFB47
:1006700040B9102D06D200222946501E00F028F85D
:10068000356000E00124204670BD0000000000201D
:100690000C0000200D4808B5016841F000410160E0
:1006A000016801F000410091011F0A6842F0010257
:1006B0000A60096801F001010091016841F0805170
:1006C0000160006800F08050009008BD24380240AE
:1006D000F0B40E4B1B680C46C3F30223C3F10705AD
:1006E000042D00D90425191D072901D2002300E09B
:1006F000DB1E012606FA05F1491E214099409E4065
:10070000761E16403143F0BC00F0E6BE0CED00E072
:10071000064900F0070208684FF6FF03184040EA58
:100720000220034A10430860704700000CED00E00F
:100730000000FA052DE9F0470E46050079D0DFF8F4
:100740008481D8F8000000F00100B04214D2012EDC
:1007500005D1D8F8001041F00401C8F80010D8F80D
:10076000001021F001013143C8F80010D8F8000052
:1007700000F00100B0425CD12878534C800705D5C9
:100780002068A96820F0F000084320602878C0079E
:100790005CD04D496868083902281AD003281BD05C
:1007A000096801281BD08905002966DA216821F033
:1007B000030101432160FFF72DFF6968074641F2FD
:1007C0008830022914D0032920D0012981462AD05B
:1007D00038E009688903E7E709688901E4E78907E0
:1007E000E2E700BFFFF716FFC11B494501D926E02C
:1007F00081462068C0F381000228F3D126E000BFC3
:10080000FFF708FFC11B494501D918E08146206860
:10081000C0F381000328F3D118E000BFFFF7FAFE10
:10082000C11B49450BD82068C0F381000128F5D1D0
:100830000CE022E0FFF7EEFEC11B494502D9032080
:10084000BDE8F087206810F00C0FF3D1D8F8001045
:10085000404601F00101B14211D9012E03D10168D6
:1008600041F004010160016821F0010131430160A0
:10087000006800F00100B04201D00120E0E72878D4
:10088000400705D52068E96820F4E060084320604F
:100890002878000706D52068296920F4605040EACE
:1008A000C100206000F018F82168084AC1F3031164
:1008B000515CC8400649086006480068BDE8F0473A
:1008C000FFF7C6BE003C0240083802404D15000844
:1008D0000C0000200000002070B5154D2968154857
:1008E00001F00C02042A0CD0134C082A0AD00C2A5E
:1008F0000AD0281F0068C0F342314FF40040491C61
:10090000884070BD204670BD0C4AC1F38343D35C60
:10091000C1F381522968521CC90302D5A3FB04010B
:1009200001E0A3FB00010023FFF76AFC70BD00009B
:10093000083802400024F40000366E014415000817
:100940002DE9F84F04007DD0FC480168006801F0F3
:100950000C0700F480362078F94DC00741D0082FED
:1009600012D00C2F02D1B6F5803F0DD0606801285F
:1009700011D008B1052818D0286820F480302860EC
:10098000286820F4802009E02868800329D5606861
:100990000028D8D025E0286840F4803028606068BE
:1009A00090B1FFF737FE80460AE0286840F48020C7
:1009B0002860F0E7FFF72EFEA0EB080064287BD844
:1009C00028688003F6D50CE0FFF724FE804605E09A
:1009D000FFF720FEA0EB08006428F0D82868800309
:1009E000F6D42078DFF85CB3DFF85C8380074FF043
:1009F00001094FF0000A35D5042F0AD00C2F00D181
:100A00003EB1E068F8B1C8F80090FFF703FE064673
:100A10000BE0286880070BD5E068012812D107E0B9
:100A2000FFF7F8FD801B0228C9D828688007F7D592
:100A3000DBF80010226921F4F85141EA0221CBF8D9
:100A400000100FE077E1C8F800A0FFF7E3FD0646CD
:100A500005E000BFFFF7DEFD801B0228AFD8286845
:100A60008007F7D42078C00674D53FB1A069E0B301
:100A7000C8F82090FFF7CEFD06464AE028688005BA
:100A800002D5A069002884D0206ADBF800105E46F9
:100A900001F46041884210D900F0C4FB0028BDD1A8
:100AA0003068216A20F4604008433060217F30685C
:100AB00061F31F6030600FE096E0316821F460411F
:100AC00001433160217F306861F31F603060206A2C
:100AD00000F0A8FB0028A1D1216A4FF4004009EBE7
:100AE000513188409549096800E025E0974AC1F3F3
:100AF0000311515CC8409649086096480068FFF7AA
:100B0000A7FD00286FD125E0FFF784FD801B022898
:100B10006AD828688005F7D5DBF80010226A21F42E
:100B200060411143CBF80010227FDBF8001062F324
:100B30001F61CBF800100DE0C8F820A0FFF76AFD98
:100B4000064604E0FFF766FD801B02284CD82868A3
:100B50008005F7D42078804E000722D57F48616950
:100B600081B1C0F80090FFF755FD834606E000BF55
:100B7000FFF750FDA0EB0B00022835D83068800746
:100B8000F6D50EE0C0F800A0FFF744FD834605E06F
:100B9000FFF740FDA0EB0B00022825D83068800746
:100BA000F6D4207840076DD56B484FF0000B103815
:100BB0000068C0000BD468481038016841F08051CB
:100BC000016000684FF0010B00F080500090644815
:100BD0000168C90514D4016841F480710160FFF710
:100BE00019FD009008E08DE079E000BFFFF712FDED
:100BF0000099401A642872D859480068C005F5D594
:100C0000A06801280AD008B1052811D0306820F466
:100C100080703060306820F4806002E0306840F41A
:100C200080703060A068A8B1FFF7F4FC00900DE080
:100C3000306840F480603060F0E700BFFFF7EAFC06
:100C40000099411A41F2883081425AD830688005B3
:100C5000F4D50EE0FFF7DEFC009007E0FFF7DAFCCA
:100C60000099411A41F2883081424AD830688005A3
:100C7000F4D4BBF1000F05D037481038016821F0DB
:100C800080510160606A58B30C2F41D00228504651
:100C900005D0C8F86000FFF7BDFC044634E04746C5
:100CA000C8F86000FFF7B6FC064604E0FFF7B2FCA8
:100CB000801B022825D828688001F7D4D4E90A10BF
:100CC00001431E48226B036823F47D031A4311433A
:100CD0000160C7F86090FFF79DFC044607E010E054
:100CE00040E000BFFFF796FC001B022809D82868E7
:100CF0008001F7D536E000BFFFF78CFC001B02280F
:100D000002D90320BDE8F88F28688001F4D429E0D7
:100D10000128F7D009480068A26A00F480319142A6
:100D200009D1E26A00F47011914204D1216B00F400
:100D30004000884216D00120E4E700000838024055
:100D40000038024004380240000047424D150008B8
:100D50000C0000200000002034380240800647428A
:100D6000007000400020CDE710B5401EB0F1807F3C
:100D700001D3012010BD4FF0E02460610F21601706
:100D800000F0AAFB0020A06107202061002010BD18
:100D900070B590F83820012A26D0012480F8384018
:100DA000022280F8392003685A689D6822F0700694
:100DB0000A6832435A600268B2F1804F08D00B4B88
:100DC0009A4205D00A4B9A4202D00A4B9A4204D169
:100DD000496825F080031943916080F8394000216B
:100DE00080F83810084670BD022070BD0004004035
:100DF000000800400008014010B5040003D094F83A
:100E0000390010B107E0012010BD002084F838003F
:100E1000204600F017F8022084F83900211D2068D0
:100E200000F078FA012084F83E0084F83A0084F853
:100E30003B0084F83C0084F83D0084F83900002031
:100E400010BD000008B50068B0F1804F08D105481A
:100E5000016841F001010160006800F001000090AC
:100E600008BD00002438024070B5044690F83800F0
:100E70000025012817D0012684F83860022084F864
:100E800039002068826822F0770222F47F42826073
:100E90000868502838D00DDC20284FD005DC90B3EE
:100EA000102811D14AE0022070BD302846D04028D9
:100EB0000AD13BE060282FD070280DD0B0F5805FBC
:100EC00003D0B0F5005F12D0012584F8396000200E
:100ED00084F83800284670BDCB68D1E9012120682C
:100EE00000F067FA2068816841F0770109E0CB687B
:100EF000D1E90121206800F05CFA2068816841F4A2
:100F000080418160E1E719E0CA684968206800F023
:100F1000BFFA5021206806E0CA684968206800F0DE
:100F2000C8FA6021206800F04EFACEE7CA68496826
:100F3000206800F0ADFA40212068F4E722680146FD
:100F40001046F0E710B586B0044614216846FFF756
:100F5000CEF92068B0F1804F15D10C48016841F0FE
:100F6000010101600068694600F00100059007205A
:100F70000090022001900020029003900120049034
:100F80000348FFF71BFA06B010BD00001C380240F2
:100F90000000024070B5044690F8380000260D4667
:100FA00001280FD0012084F838006AB1042A1DD02E
:100FB000082A2FD00C2A3FD00126002084F83800C0
:100FC000304670BD022070BD206800F004FA206831
:100FD000816941F0080181612068816921F0040183
:100FE000816120688169EA68114311E0206800F09E
:100FF00008FA2068816941F4006181612068816993
:1010000021F48061816120688169EA6841EA0221F6
:101010008161D2E7206800F00CFA2068C16941F0D4
:101020000801C1612068C16921F00401C161206823
:10103000C169EA68114311E0206800F011FA2068E4
:10104000C16941F40061C1612068C16921F4806116
:10105000C1612068C169EA6841EA0221C161ACE767
:1010600010B5040003D094F8390010B107E0012056
:1010700010BD002084F83800204600F016F8022049
:1010800084F83900211D206800F044F9012084F81B
:101090003E0084F83A0084F83B0084F83C0084F871
:1010A0003D0084F83900002010BD704710B504469B
:1010B000022249B104290ED0082913D094F83D002A
:1010C000012816D0012010BD94F83A000128F9D16A
:1010D00084F83A200FE094F83B000128F2D184F81C
:1010E0003B2008E094F83C000128EBD184F83C2038
:1010F00001E084F83D200122206800F04DF92068CD
:10110000B0F1804F08D00A49884205D00949884289
:1011100002D00949884204D1816801F007010629FB
:1011200003D0016841F001010160002010BD000002
:10113000000400400008004000080140FEE70000F5
:1011400070B58AB00025344C049505950695079531
:10115000089509950095019502954FF080400395FB
:1011600001C41020642661C42B4844F810596561FD
:10117000FFF742FE08B172B6FEE74FF480500490CC
:1011800004A92548FFF770FE08B172B6FEE72248B1
:10119000FFF766FF08B172B6FEE7089508A91E487A
:1011A0000995FFF7F5FD08B172B6FEE760200090E3
:1011B000E068002200EBC00101EB0010B0FBF6F08C
:1011C000CDE90105694614480395FFF7E3FE08B130
:1011D00072B6FEE732200190042269460E48FFF7FE
:1011E000D9FE08B172B6FEE74B200190082269468D
:1011F0000948FFF7CFFE08B172B6FEE70C22694638
:1012000005480196FFF7C6FE08B172B6FEE7024830
:10121000FFF798FE0AB070BD10000020FEE7FEE761
:101220007047000038B51C49002309681B4A11F0BB
:10123000F00F23D118491C310C68E500184C03D578
:10124000216801F4C0540EE00D6845F080550D6032
:101250000D6805F08055009524680D6804F4C054AD
:1012600025F080550D60B4F5C05F07D1B0F5404F53
:1012700004D11068012340F004001060106820F0D1
:10128000010018431060106800F00100984201D07E
:10129000012038BD002038BD08380240003C024023
:1012A000007000407047FFF7BBB9000030B593B045
:1012B00034216846FFF71BF814210DA8FFF717F833
:1012C0001248016821F4C05141F40061016002201C
:1012D00000900024012510200994CDE903506846B0
:1012E000FFF72EFB08B172B6FEE70F20CDE90E54D2
:1012F0000D90109400210DA81194FFF71BFA0028FF
:1013000001D072B6FEE713B030BD0000007000409F
:1013100070470000F0B502684FF0804C184B194C34
:10132000194D1A4E604507D0984205D0A04203D00F
:10133000A84201D0B04205D122F070074A683A4372
:1013400060450DD098420BD0A04209D0A84207D0EA
:10135000B04205D00E4B984202D00E4B984203D1BA
:1013600022F44073CA681A430B6922F080021A43C0
:1013700002608A68C2620968816201214161F0BD30
:101380000004004000080040000C0040000801403C
:10139000000C01400010014010B501F01F030121B5
:1013A000046A99408C430462016A9A4011430162C5
:1013B00010BD10B5846842EA032224F47F440A4336
:1013C0002243826010BD826822F070020A4342F01C
:1013D00007018160704730B5036A026A22F001029A
:1013E00002624468826922F073050A682A4323F086
:1013F00002058B6844602B43826149684163036244
:1014000030BD30B5046A026A22F0100202624268FE
:1014100083690D6823F4E64343EA05238D6824F0CD
:10142000200444EA051442608361496881630462D0
:1014300030BD30B5046A026A22F4807202624368E9
:10144000C26924F4007422F073050A682A438D6887
:10145000436044EA0524C2614968C163046230BD47
:1014600030B5046A026A22F4805202624268C3699B
:101470000D6823F4E64343EA05238D6824F4005401
:1014800044EA05344260C36149680164046230BDC6
:1014900010B5036A046A24F001040462846924F02C
:1014A000F00444EA021423F00A020A43846102624F
:1014B00010BD10B5036A046A24F010040462846944
:1014C00023F0A00324F4704444EA023243EA0111F9
:1014D0008261016210BDFEE70907090E002804DBE6
:1014E00000F1E02080F80014704700F00F0000F1D8
:1014F000E02080F8141D704708B5FFF799F8FFF752
:10150000D5FE0E48016841F001010160006800F05D
:1015100001000090FFF714FE00210948FFF7C6FD07
:1015200004210748FFF7C2FD08210548FFF7BEFD6B
:101530000C210348FFF7BAFDFEE700001C3802400B
:1015400010000020030406080C10182030000000D2
:101550000000000000010203040607080900000063
:101560008015000800000020100000006001000845
:101570009015000810000020A00600007C01000863
:1015800010000000010000000000000068FF1F00C4
:0400000508000125C9
:00000001FF
