:020000040800F2
:10000000600A002029020008771C0008211A000855
:10001000751C0008830400087F2100080000000010
:100020000000000000000000000000007B1C000831
:100030008504000800000000791C00087D1C0008F1
:10004000430200084302000843020008430200087C
:10005000430200084302000843020008430200086C
:10006000430200084302000843020008430200085C
:10007000430200084302000843020008430200084C
:10008000430200084302000843020008430200083C
:10009000430200084302000843020008430200082C
:1000A000430200084302000843020008430200081C
:1000B000430200084302000843020008430200080C
:1000C00043020008430200084302000843020008FC
:1000D00043020008430200084302000843020008EC
:1000E00043020008430200084302000843020008DC
:1000F00043020008430200084302000843020008CC
:1001000000000000000000000000000043020008A2
:1001100043020008430200084302000843020008AB
:10012000430200084302000843020008430200089B
:100130004302000843020008000000000000000025
:1001400043020008430200084302000800000000C8
:10015000000000000000000000000000000000009F
:1001600000000000000000004302000843020008F5
:100170004302000800000000000000000000000032
:10018000000000004302000800F002F800F03CF814
:100190000AA090E8000C82448344AAF10107DA45E2
:1001A00001D100F031F8AFF2090EBAE80F0013F0F8
:1001B000010F18BFFB1A43F0010318478C20000001
:1001C000AC200000103A24BF78C878C1FAD8520792
:1001D00024BF30C830C144BF04680C6070470000C1
:1001E0000023002400250026103A28BF78C1FBD840
:1001F000520728BF30C148BF0B6070471FB502F0DF
:1002000005F81FBD10B510BD00F001F91146FFF74C
:10021000F5FF01F0C5FF00F01FF903B4FFF7F2FF8F
:1002200003BC00F027F9000009488047094800474F
:10023000FEE7FEE7FEE7FEE7FEE7FEE7FEE7FEE796
:10024000FEE7FEE704480549054A064B70470000F3
:10025000091D00088901000860040020600A0020D0
:10026000600600206006002053EA020C00F069805E
:100270002DE9F04B4FF00006002B1FBFB3FA83F5BA
:1002800003FA05F424FA05F65E4012BF1643B2FAEB
:1002900082F502FA05F4C5F120051EBF22FA05FC1D
:1002A00044EA0C04203556EA044C4FEA144418BFC3
:1002B000641C4FF000084FF00009904271EB030CF2
:1002C00039D3002919BFB1FA81F701FA07F6B0FA5C
:1002D00080F700FA07F6C7F120071EBF20FA07FCD7
:1002E00046EA0C062037B6FBF4FCA7EB0507103FE7
:1002F00007F01F0BCBF120060CFA0BFB2CFA06F6CD
:1003000044BFB3460026202FA4BF5E464FF0000B2B
:100310005BEA060C08BF4FF0010B19EB0B09ABFBB6
:10032000027C48EB0608C01B06FB02CC0BFB03CC8F
:1003300071EB0C01C1E70B46024641464846BDE859
:10034000F08B13B54FF000004FF00001AFF30080C9
:10035000BDE81C40704710B5203AC0F00B80B1E8F2
:100360001850203AA0E81850B1E81850A0E81850EA
:10037000BFF4F5AF5FEA027C24BFB1E81850A0E8F3
:10038000185044BF18C918C0BDE810405FEA827C0D
:1003900024BF51F8043B40F8043B08BF7047D20724
:1003A00028BF31F8023B48BF11F8012B28BF20F8C5
:1003B000023B48BF00F8012B70474FF0000200B528
:1003C000134694469646203922BFA0E80C50A0E878
:1003D0000C50B1F12001BFF4F7AF090728BFA0E826
:1003E0000C5048BF0CC05DF804EB890028BF40F8F2
:1003F000042B08BF704748BF20F8022B11F0804F34
:1004000018BF00F8012B704770477047704775465A
:1004100000F02CF8AE4605006946534620F0070070
:10042000854618B020B5FFF70DFFBDE820404FF01E
:1004300000064FF000074FF000084FF0000B21F0CE
:100440000701AC46ACE8C009ACE8C009ACE8C0099B
:10045000ACE8C0098D46704710B50446AFF3008084
:100460002046BDE81040FFF7D8BE000000487047A6
:100470000004002001491820ABBEFEE72600020060
:100480007047FEE7704700002DE9F04FDFF8AC91B0
:1004900000230325A9F1040B85B04FF0010C0F27B1
:1004A00009F1040AABF1040EBFE000BF0CFA03F639
:1004B000324075D00C7904F00304012C01D0022CD9
:1004C0001BD1846800945C0005FA04F80494009C35
:1004D00024EA08040094D1F80C80049C08FA04F87B
:1004E000009C48EA0408C0F808804468B4430E79C8
:1004F000C6F300169E40264346600C79E443A407E9
:100500000AD0C4684FEA430805FA08F6B4438E6877
:1005100006FA08F62643C6600C7904F00304022CA0
:1005200010D1DC0800EB84040294246A5E074FEAD1
:10053000D66807FA08F6B4430E6906FA08F62643A9
:10054000029C266204684FEA430805FA08F6B443A1
:100550000E7906F0030606FA08F6264306604C6894
:1005600014F4403F60D0364CA66946F00106A661FF
:10057000A46923F0030604F001040094314C3444D0
:100580000294A4689E074FEA167807FA08F6B44367
:10059000B0F1904F05D02C4EB04204D1012612E0AC
:1005A00042E000260FE0294EB04201D102260AE0C7
:1005B000274EB04201D1032605E0264EB04201D1BC
:1005C000042600E0052606FA08F62643029CA660EB
:1005D000D9F800604C46D1F8048096435FEAC828F9
:1005E00000D516432660DAF800405646D1F804805C
:1005F00094435FEA882800D514433460DBF8004058
:100600005E46D1F8048094435FEA883800D51443ED
:100610003460DEF800407646D1F8048094435FEA07
:10062000C83800D5144334605B1C0A6832FA03F4FE
:100630007FF43CAF05B0BDE8F08F00000804014036
:10064000001002400000014000040048000800487B
:10065000000C0048001000480AB1816170478162B7
:1006600070470000014880687047000000000020CB
:1006700090F84120202A24D190F84020012A20D04F
:10068000012280F84020242280F84120026813686B
:1006900023F0010313600268136823F4805313608E
:1006A000026813680B43136001680A6842F0010294
:1006B0000A60202180F84110002180F8401008468F
:1006C00070470220704790F84120202A22D190F8EC
:1006D0004020012A1ED0012280F84020242280F8E8
:1006E00041200268136823F0010313600268136855
:1006F00023F4706343EA0121116001680A6842F043
:1007000001020A60202180F84110002180F8401089
:10071000084670470220704770B5040004D094F872
:100720004100002510B106E0012070BD84F8405062
:10073000204600F04DF8242084F84100206801682C
:1007400021F0010101606068216820F0706008619B
:100750002068816821F400418160E0680128A06878
:1007600007D040F4044021688860E068022803D084
:1007700006E040F40040F6E721684FF4006048606E
:1007800020684168114A114341602068C16821F422
:100790000041C160D4E904010843A16940EA012095
:1007A0002168C860D4E9070108432168086020680F
:1007B000016841F0010101606564202084F8410076
:1007C000256384F84250002070BD000000800002C4
:1007D00010B586B0044614216846FFF7EEFD1249B5
:1007E000206888421ED1114C606940F4802060610D
:1007F0006069694600F480200590C02000901220B6
:1008000001900120029003200390042004900848E6
:10081000FFF73AFEE06940F40010E061E06900F49F
:100820000010059006B010BD0054004000100240BA
:1008300000040048024881680278114481607047D2
:1008400000000020074810B5016841F01001016068
:10085000032000F061F8002000F006F800F024F812
:10086000002010BD0020024070B50D4D04464FF42D
:100870007A712878B1FBF0F00A490968B1FBF0F011
:1008800000F054FE48B9102C07D200222146501E19
:1008900000F022F800206C6070BD012070BD0000E7
:1008A000000000200C0000200A4882B0816941F05D
:1008B00001018161816901F001010091C16941F08B
:1008C0008051C161C06900F080500090072002B0E3
:1008D00000F022B800100240F0B40E4B1B680C462A
:1008E000C3F30223C3F10705042D00D90425191D04
:1008F000072901D2002300E0DB1E012606FA05F1DC
:10090000491E214099409E40761E16403143F0BC5E
:1009100001F036BC0CED00E0064900F00702086863
:100920004FF6FF03184040EA0220034A10430860D4
:10093000704700000CED00E00000FA0570B586B0CD
:10094000040004D094F8A902002518B107E00120A2
:1009500006B070BD84F8A852204600F043F803208A
:1009600084F8A902206801F003FC002001260DE0B4
:1009700000EB800104EBC10181F8296001F8280F28
:10098000401CCD700D614D61C0B28D6161688142C6
:10099000EED8002012E000BF00EB800104EBC101A3
:1009A00081F8695181F8680181F86B51C1F878517B
:1009B000C1F87C51401CC0B2C1F8805161688142CD
:1009C000EAD8142204F110016846FFF7C4FC94E849
:1009D0000F0001F0C4FB84F8245084F8A9620020C1
:1009E000B6E7000010B586B0044614216846FFF74C
:1009F000E4FC13492068884220D1124C606940F41D
:100A0000003060616069694600F4003005904FF481
:100A1000C05000900220019000200290032003901B
:100A20000E2004904FF09040FFF72EFDE06940F457
:100A30000000E061E06900F40000059006B010BD20
:100A4000005C0040001002402DE9F84F04460068A9
:100A50000026804DC0036ED5E869C00008D4E8695F
:100A600040F08050E861E869012600F08050009075
:100A700079480168C90512D40168804641F4807143
:100A80000160FFF7EFFD074605E000BFFFF7EAFD55
:100A9000C01B642835D8D8F80000C005F6D5286AF0
:100AA00010F4407053D0A18801F4407181424ED0BF
:100AB000286A4FF4803191FAA1F2B2FA82F29700DB
:100AC000664A4FF00108174420F44070C7F80084CC
:100AD00091FAA1F1B1FA81F102EB81010023C1F891
:100AE00000342862C00732D0FFF7BCFD074641F250
:100AF000883A4FF0020907E0FFF7B4FDC11B5145EA
:100B000002D90320BDE8F88F99FAA9F0B0FA80F075
:100B100040F040024946B8EB521F01D12A680CE070
:100B200091FAA1F2B2FA82F242F04002B1EB521F06
:100B300002D12A6A01E015E06A6A99FAA9F1B1FACC
:100B400081F101F01F0108FA01F00242D4D0286AB5
:100B5000616820F44070084328621EB1E86920F003
:100B60008050E8612078C00705D0286BA16820F08C
:100B70000300084328632078800705D5286BE168C7
:100B800020F44030084328632078400705D5286BBF
:100B9000216920F44020084328632078800605D589
:100BA000286BE16920F01000084328632068800367
:100BB00005D56868A16B20F4800008436860207840
:100BC000400605D5286B216A20F0200008432863E1
:100BD0002078000705D5286B616920F44010084390
:100BE00028632078C00605D5286BA16920F4400051
:100BF000084328632088800505D56868E16A20F4E9
:100C00000000084368602078000605D5E86A616A3C
:100C100020F4F8700843E8622088C00505D5E86A2A
:100C2000A16A20F478500843E8622088C00405D502
:100C3000286B216B20F4807008432863208880048F
:100C400005D5286B616B20F40070084328630020F1
:100C500058E70000001002400070004000004242CF
:100C60002DE9F0470F46050069D04A4E306800F084
:100C70000700B84209D2306820F0070038433060DE
:100C8000306800F00700B84259D12878424C8007FC
:100C900005D56068A96820F0F000084360602878F6
:100CA000C0073DD06968012001290DD0022923D059
:100CB0005FF0020393FAA3F2B2FA82F242F020024A
:100CC000520904D0226803E04FF40033F2E7626A6D
:100CD00093FAA3F3B3FA83F303F01F03984002429D
:100CE0002DD0606820F0030008436060FFF7BAFC75
:100CF000804641F288390CE04FF00073DAE700BF1C
:100D0000FFF7B0FCA0EB0801494502D90320BDE87C
:100D1000F0876068696800F00C00B0EB810FEFD1DC
:100D2000306800F00700B8420BD9306820F00700A7
:100D300038433060306800F00700B84201D001202D
:100D4000E5E72878400705D56068E96820F4E060A9
:100D5000084360602878000706D56068296920F498
:100D6000605040EAC100606000F01EF86168F02247
:100D700092FAA2F201F0F001B2FA82F2D140074AEF
:100D8000515CC8400649086006480068FFF76CFDE2
:100D90000020BCE70020024000100240362200087C
:100DA0000C00002004000020164A10B551681648B7
:100DB00001F00C03042B20D0082B1ED14FF470142B
:100DC00094FAA4F401F47013B4FA84F4E3400F4CE1
:100DD000D26AE45C0F2393FAA3F302F00F02B3FA92
:100DE00083F3DA40094B1033C9039A5C06D500231C
:100DF0001946FFF739FAA0FB040110BD0448A4FB13
:100E0000000110BD0010024000127A0016220008F6
:100E100000093D002DE9F84F050071D02878FC4EFF
:100E2000C0074FF0010425D070686704C0F381004B
:100E3000012807D07068C0F3810002281BD17068B8
:100E4000C00318D597FAA7F0B0FA80F040F0200060
:100E5000400901D0306800E0706A97FAA7F1B1FA52
:100E600081F101F01F0104FA01F1084265D06868C0
:100E70000028D2D061E06868B0F5803F0BD010B197
:100E8000B0F5A02F17D0306820F480303060306883
:100E900020F4802002E0306840F480303060F06A56
:100EA000A96820F00F000843F062686820B3FFF7DC
:100EB000D9FB80460AE0306840F480203060EAE7E1
:100EC000FFF7D0FBA0EB0800642871D897FAA7F0D1
:100ED000B0FA80F040F02000400901D0306800E016
:100EE000706A97FAA7F1B1FA81F101F01F0104FAD3
:100EF00001F10842E4D020E0FFF7B4FB804607E0B0
:100F0000C2E000BFFFF7AEFBA0EB08006428DCD80E
:100F100097FAA7F0B0FA80F040F02000400901D025
:100F2000306800E0706A97FAA7F1B1FA81F101F038
:100F30001F0104FA01F10842E4D12878DFF8D482D5
:100F400080074FF0000A4FF0020730D570684FF06D
:100F5000F80B10F00C0F07D07068C0F38100022866
:100F600027D17068C00324D497FAA7F0B0FA80F0B4
:100F700040F02000400901D0306800E0706A97FA24
:100F8000A7F1B1FA81F101F01F0104FA01F1084261
:100F900002D02869012877D130689BFAABF220F0A3
:100FA000F8016869B2FA82F29040014331605AE078
:100FB00064E1286988B394FAA4F0B0FA80F048F8A4
:100FC0002040FFF74FFB814606E000BFFFF74AFBDA
:100FD000A0EB090002289AD897FAA7F0B0FA80F09F
:100FE00040F02000400901D0306800E0706A97FAB4
:100FF000A7F1B1FA81F101F01F0104FA01F10842F1
:10100000E4D030689BFAABF26969B2FA82F220F060
:10101000F80091400843306025E0FFE794FAA4F01F
:10102000B0FA80F048F820A0FFF71CFB814605E0ED
:10103000FFF718FBA0EB09000228CCD897FAA7F01D
:10104000B0FA80F040F02000400901D0306800E0A4
:10105000706A97FAA7F1B1FA81F101F01F0104FA61
:1010600001F10842E4D1287800076CD5A869A8B33B
:1010700094FAA4F0B0FA80F008EB8000C0F8804445
:10108000FFF7F0FA814607E0A4E100BFFFF7EAFAB4
:10109000A0EB090002289ED897FAA7F0B0FA80F0DA
:1010A00040F06000B4EB501F01D130680BE097FABC
:1010B000A7F0B0FA80F040F06000B7EB501F01D10C
:1010C000306A00E0706A97FAA7F1B1FA81F101F095
:1010D0001F0104FA01F21042D8D034E0FFE794FA7D
:1010E000A4F1B1FA81F108EB8101C1F880A4FFF706
:1010F000B9FA814606E000BFFFF7B4FAA0EB090099
:1011000002289AD897FAA7F0B0FA80F040F0600071
:10111000B4EB501F01D130680BE097FAA7F0B0FA9A
:1011200080F040F06000B7EB501F01D1306A00E062
:10113000706A97FAA7F1B1FA81F101F01F0104FA80
:1011400001F21042D8D12878400768D5F0694FF0F5
:101150000009C00009D4F06940F08050F061F069E6
:101160004FF0010900F0805000902B480168C9053C
:1011700012D4016841F480710160FFF773FA83466D
:1011800006E000BFFFF76EFAA0EB0B00642875D8ED
:1011900021480068C005F5D5E86801280AD008B1E3
:1011A000052811D0306A20F001003062306A20F04A
:1011B000040002E0306A40F001003062E86868B381
:1011C000FFF750FA83460DE0306A40F004003062C9
:1011D000F0E700BFFFF746FAA0EB0B0141F28830C1
:1011E00081424BD897FAA7F0B0FA80F040F0400067
:1011F000B4EB501F01D1306813E097FAA7F0B0FAB2
:1012000080F040F04000B7EB501F09D1306A08E091
:101210000010024000004242007000400CE040E03C
:10122000706A97FAA7F1B1FA81F101F01F0104FA8F
:1012300001F21042CED02DE0FFF714FA834607E00A
:10124000FFF710FAA0EB0B0141F28830814215D86C
:1012500097FAA7F0B0FA80F040F04000B4EB501FCE
:1012600001D130680CE097FAA7F0B0FA80F040F0B6
:101270004000B7EB501F02D1306A01E083E0706A92
:1012800097FAA7F1B1FA81F101F01F0104FA01F216
:101290001042D5D1B9F1000F03D0F06920F0805091
:1012A000F061E86980B37168C1F38101022977D0E8
:1012B0004FF080714F000228504609D091FAA1F1F9
:1012C000B1FA81F148F82100FFF7CCF905465DE05D
:1012D000894691FAA1F1B1FA81F1C24648F821009C
:1012E000FFF7C0F9804605E0FFF7BCF9A0EB080066
:1012F000022848D897FAA7F0B0FA80F040F0200012
:10130000400902D0306801E066E0706A97FAA7F100
:10131000B1FA81F101F01F0104FA01F10842E3D1B1
:10132000D5E908100843716821F47411084370600E
:1013300099FAA9F0B0FA80F04AF82040FFF792F944
:10134000054604E0FFF78EF9401B02281BD897FAE8
:10135000A7F0B0FA80F040F02000400901D03068DA
:1013600000E0706A97FAA7F1B1FA81F101F01F016C
:1013700004FA01F10842E5D02EE000BFFFF772F950
:10138000401B022802D90320BDE8F88F97FAA7F086
:10139000B0FA80F040F02000400902D0306801E04F
:1013A0000BE0706A97FAA7F1B1FA81F101F01F0121
:1013B00004FA01F10842E1D10EE00128E4D070689E
:1013C0002A6A00F48031914204D1696A00F47010F5
:1013D000884201D00120D7E70020D5E770B504008E
:1013E00009D0606A002540B125616561A56294F865
:1013F0005D0040B10CE0012070BD6068B0F5827FF7
:10140000F4D0E561F2E784F85C50204600F05CF827
:10141000022084F85D002068016821F0400101602D
:10142000E1684FF4E062914201D9002001E04FF4FD
:101430008050B1F5706F02D0914200D0A562A188B2
:10144000228901F4827102F404421143227C02F0E9
:1014500002021143227D02F001021143228B02F4A9
:1014600000721143227F02F03802114394F82020C9
:1014700002F080021143228D02F4005211432268CF
:101480001160A169042202EA114194F8242000F4B9
:10149000805002F01002114394F8342002F0080248
:1014A0001143A28902F47062114301432068416034
:1014B0002068C16921F40061C1612566012084F8BA
:1014C0005D00002070BD000010B586B004461421F8
:1014D0006846FEF772FF1349206888421FD1124800
:1014E000816941F480518161816901F480510591E4
:1014F000416941F4003141614069694600F40030BE
:101500000590E0200090022001900020029003202E
:101510000390052004904FF09040FEF7B5FF06B011
:1015200010BD0000003001400010024010B5401E08
:10153000B0F1807F01D3012010BD4FF0E024606145
:101540000F21601700F01CFE0020A0610720206121
:10155000002010BDF0B590F83C20012A36D00124BF
:1015600080F83C40022280F83D200268536895686C
:10157000174E184FB24201D0BA4204D123F4700C76
:101580004B6843EA0C0323F0700C0B6843EA0C032E
:1015900053600268B2420DD0B2F1804F0AD00E4BB8
:1015A0009A4207D00D4B9A4204D0BA4202D00C4B5B
:1015B0009A4204D1896825F080031943916080F82C
:1015C0003D40002180F83C100846F0BD0220F0BDEF
:1015D000002C01400034014000040040000800409D
:1015E0000040014010B5040003D094F83D0010B154
:1015F00007E0012010BD002084F83C00204600F0E8
:1016000023F8022084F83D00211D206800F084FBAF
:10161000012084F8480084F83E0084F83F0084F8F4
:10162000400084F8410084F8420084F8430084F8C4
:10163000440084F8450084F8460084F8470084F8A4
:101640003D00002010BD000008B50068B0F1804FDB
:1016500008D10548C16941F00101C161C06900F0CC
:101660000100009008BD00000010024070B5044663
:1016700090F83C000025012817D0012684F83C6032
:10168000022084F83D00226890682F4B184020F417
:101690007F4090600868502838D00DDC20284FD05B
:1016A00005DC90B3102811D14AE0022070BD30282B
:1016B00046D040280AD13BE060282FD070280DD0BA
:1016C000B0F5805F03D0B0F5005F12D0012584F83B
:1016D0003D60002084F83C00284670BDCB68D1E90D
:1016E0000121206800F07DFB2068816841F07701CE
:1016F00009E0CB68D1E90121206800F072FB206885
:10170000816841F480418160E1E719E0CA68496875
:10171000206800F001FD5021206806E0CA68496891
:10172000206800F00AFD6021206800F064FBCEE72D
:10173000CA684968206800F0EFFC40212068F4E79F
:10174000226801461046F0E788FFFEFF10B586B01C
:10175000044614216846FEF730FE2068B0F1804F41
:1017600017D10D48416941F4003141614069694632
:1017700000F40030059048F20E0000900220019025
:10178000002002900390012004904FF09040FEF75B
:101790007BFE06B010BD00000010024070B504468C
:1017A00090F83C0000260D4601280BD0012084F85B
:1017B0003C000C2A4AD007DC82B1042A20D0082A37
:1017C00006D131E0022070BD102A53D0142A63D014
:1017D0000126002084F83C00304670BD206800F0EF
:1017E00013FB2068816941F00801816120688169EB
:1017F00021F004018161206881692A69114311E0A7
:10180000206800F04FFB2068816941F4006181612C
:101810002068816921F480618161206881692A6979
:1018200041EA02218161D4E7206800F083FB20684F
:10183000C16941F00801C1612068C16921F004015A
:10184000C1612068C1692A69114311E0206800F074
:10185000B9FB2068C16941F40061C1612068C169B8
:1018600021F48061C1612068C1692A6941EA0221CD
:10187000C161AEE7206800F0DFFB2068416D41F0F8
:10188000080141652068416D21F00401416520682F
:10189000416D2A69114311E0206800F005FC2068C1
:1018A000416D41F4006141652068416D21F4806122
:1018B00041652068416D2A6941EA0221416588E756
:1018C00010B5040003D094F83D0010B107E00120EA
:1018D00010BD002084F83C00204600F022F80220D1
:1018E00084F83D00211D206800F016FA012084F8DC
:1018F000480084F83E0084F83F0084F8400084F8F3
:10190000410084F8420084F8430084F8440084F8DD
:10191000450084F8460084F8470084F83D00002024
:1019200010BD704730B50446022269B1042912D0B7
:10193000082917D00C291CD0102921D094F8430075
:10194000012824D0012030BD94F83E000128F9D1AF
:1019500084F83E201DE094F83F000128F2D184F87D
:101960003F2016E094F840000128EBD184F8402095
:101970000FE094F841000128E4D184F8412008E008
:1019800094F842000128DDD184F8422001E084F877
:1019900043200122206800F017FA194B20681949EA
:1019A000194A984209D0884207D0904205D0174D75
:1019B000A84202D0164DA84203D1456C45F400451B
:1019C0004564206898420CD0B0F1804F09D0114B8B
:1019D000984206D0104B984203D0884201D09042E2
:1019E00007D181680D4A1140062906D0B1F5803F24
:1019F00003D0016841F001010160002030BD00000A
:101A0000002C0140003401400040014000440140EE
:101A100000480140000400400008004007000100A9
:101A2000FEE7000070B586B014216846FEF7C5FCDD
:101A30002748416941F400114161416901F40011F5
:101A40000591416941F400214161416901F400219E
:101A50000591416941F480014161416901F48001CE
:101A60000591416941F400314161416901F400315E
:101A70000591416941F4802141614069154E00F4AE
:101A800080204FF608750590002229463046FEF763
:101A9000E3FD372000904FF490100024CDE90104BD
:101AA00069463046FEF7F0FC00950125CDE901546A
:101AB000694630460394FEF7E7FCCDE900546946D9
:101AC0004FF090400294FEF7DFFC06B070BD0000BE
:101AD0000010024000100048124810B51049016083
:101AE0001149416000210122C0E9021201614161F6
:101AF0008161C1610162FEF70FFE08B172B6FEE7B7
:101B000000210848FEF7B4FD08B172B6FEE70021D7
:101B10000448FEF7D8FD002801D072B6FEE710BDDC
:101B200000540040100000200E090020114810B59C
:101B30000F4901604FF48271416000214FF44072FF
:101B4000C0E902124FF400720161C0E905120822D7
:101B5000C0E9072107234162C0E90A13C0E90C125A
:101B6000FFF73CFC002801D072B6FEE710BD000074
:101B7000003001406400002070B58EB0002407944E
:101B8000089409940A940B940C941C2168460D94B3
:101B9000FEF713FC364E4FF08040642501C62F201F
:101BA00031C6334846F81049B461FFF71BFD08B150
:101BB00072B6FEE74FF48050079007A92C48FFF754
:101BC00055FD08B172B6FEE72948FFF779FE08B166
:101BD00072B6FEE70B940BA925480D94FFF7BAFCEB
:101BE00008B172B6FEE760200090F068002200EBBA
:101BF000C00101EB0010B0FBF5F0CDE9010469462E
:101C00001B480494FFF7CAFD08B172B6FEE7F068FE
:101C100032214843B0FBF5F0019004226946144894
:101C2000FFF7BCFD08B172B6FEE7F0680822C0EB12
:101C3000001000EB8000B0FBF5F0019069460C4805
:101C4000FFF7ACFD08B172B6FEE7F0685A214843D1
:101C5000B0FBF5F001900C2269460548FFF79EFDA8
:101C600008B172B6FEE70248FFF770FD0EB070BD16
:101C7000C8000020FEE7FEE770477047FEF7DABDB8
:101C800030B59FB028216846FEF797FB142119A8AC
:101C9000FEF793FB3C210AA8FEF78FFB0320009080
:101CA0004FF4A0200024CDE901040120049010206D
:101CB000059002250003CDE9075000010990684610
:101CC000FFF7A8F808B172B6FEE70F20CDE91905B5
:101CD0004FF48060CDE91B40012119A81D94FEF747
:101CE000BFFF08B172B6FEE706480A90400418909C
:101CF00011940AA8FEF7A8FE002801D072B6FEE7EC
:101D00001FB030BD200002000248016841F470019C
:101D10000160704788ED00E02DE9F0430268234B35
:101D2000234D244E244C4FF08049984207D048451B
:101D300005D0A84203D0B04201D0A04203D122F086
:101D400070074A683A431D4FDFF874C0DFF87480AB
:101D500098420DD048450BD0A84209D0B04207D0D8
:101D6000A04205D0B84203D0604501D0404503D120
:101D700022F44075CA682A434D6922F080022A4342
:101D800002608A68C2620A688262984207D0A042F2
:101D900005D0B84203D0604501D0404501D1096962
:101DA000016301214161BDE8F0830000002C014086
:101DB00000040040000800400034014000400140A1
:101DC000004401400048014010B501F01F0301210B
:101DD000046A99408C430462016A9A40114301628B
:101DE00010BD10B5846842EA032224F47F440A43FC
:101DF0002243826010BD826822F070020A4342F0E2
:101E000007018160704700002DE9F043026A22F06B
:101E100001020262056A436882691C4C25F00205D2
:101E200022400C6822F0030214438A68194E2A43A8
:101E3000174D194FDFF864C0DFF86490A84207D04F
:101E4000B04205D0B84203D0604501D0484506D124
:101E500022F00808CA6842EA080222F00402A842F6
:101E600007D0B04205D0B84203D0604501D0484504
:101E700005D14D6923F440731D438B692B434360A7
:101E80008461496841630262BDE8F0838FFFFEFF11
:101E9000002C01400034014000400140004401405A
:101EA00000480140F0B5026A22F010020262056AA1
:101EB00042688369194C1B4E23400C6823F440731D
:101EC00043EA042425F020038D6843EA0513144DEA
:101ED000A84201D0B04206D1CF6823F0800343EA84
:101EE000071323F04003A8420AD0B04208D00E4D99
:101EF000A84205D00D4DA84202D00D4DA84207D1F1
:101F00004D6922F4406242EA85028D6942EA850207
:101F100042608461496881630362F0BDFF8FFFFE08
:101F2000002C0140003401400040014000440140C9
:101F300000480140F0B5026A22F480720262056A2C
:101F40004368C269194C1B4E22400C6822F0030200
:101F5000144325F400728D6842EA0522144DA8420C
:101F600001D0B04206D1CF6822F4006242EA0722D3
:101F700022F48062A8420AD0B04208D00E4DA84296
:101F800005D00E4DA84202D00D4DA84207D14D6993
:101F900023F4405343EA05138D6943EA0513436074
:101FA000C4614968C1630262F0BD00008FFFFEFF9B
:101FB000002C014000340140004001400044014039
:101FC0000048014030B5026A22F480520262046A7D
:101FD0004268C369124D24F400542B400D6823F469
:101FE000407343EA05238D6844EA05340D4DA84249
:101FF0000BD00D4DA84208D00C4DA84205D00C4D79
:10200000A84202D00B4DA84204D14D6922F480426F
:1020100042EA85124260C36149680164046230BDCE
:10202000FF8FFFFE002C01400034014000400140C2
:10203000004401400048014030B5026A22F4803279
:102040000262046A4268436D114D2B400D681D43C6
:1020500024F400330C8943EA04430E4CA0420BD015
:102060000D4CA04208D00D4CA04205D00C4CA04213
:1020700002D00C4CA04204D14C6922F4803242EAD6
:1020800004224260456549688165036230BD0000F5
:102090008FFFFEFF002C0140003401400040014052
:1020A000004401400048014030B5026A22F4801229
:1020B0000262046A4268436D114D24F400142B40FF
:1020C0000D6843EA05230D8944EA05540D4DA842E5
:1020D0000BD00D4DA84208D00C4DA84205D00C4D98
:1020E000A84202D00B4DA84204D14D6922F48022AF
:1020F00042EA8522426043654968C165046230BD99
:10210000FF8FFFFE002C01400034014000400140E1
:10211000004401400048014010B5036A046A24F0FD
:1021200001040462846924F0F00444EA021423F0F8
:102130000A020A438461026210BD10B5036A23F0EB
:10214000100303628369046A23F4704343EA023292
:1021500024F0A00343EA01118261016210BD012154
:1021600020F8401F002101808180018208467047CD
:1021700030F8401F21F43F41018000207047FEE706
:102180000907090E002804DB00F1E02080F80014A4
:10219000704700F00F0000F1E02080F8141D704738
:1021A000FEF750FBFFF76CFDFFF73CFCFFF794FCDC
:1021B000FFF7BCFCFFF7E0FC13481249016008215F
:1021C0004160022181600161002181610162FEF7AD
:1021D000B5FB08B172B6FEE70B4800214C38FFF79B
:1021E000A1FB094804214C38FFF79CFB0648082155
:1021F0004C38FFF797FB04480C214C38FFF792FB53
:10220000FEE70000005C0040140100204FF0407029
:10221000E1EE100A704702030405060708090A0BDD
:102220000C0D0E0F10100102030405060708090A21
:102230000B0C0D0E0F10000000000000000001024A
:1022400003040607080900006822000800000020B7
:1022500010000000C40100087822000810000020CF
:10226000500A0000E001000801000000100000001A
:082270000000000000127A00DA
:040000050800018965
:00000001FF
